:100000000C943D030C94BB270C945A030C945A0394
:100010000C945A030C945A030C945A030C945A03EC
:100020000C945A030C945A030C9442260C945A03D1
:100030000C94F7250C945A030C945A030C945A030D
:100040000C945A030C94B6220C945A030C945A0341
:100050000C945A030C941E260C945A030C945A03C5
:100060000C945A030C945A030C945A030C945A039C
:100070000C945A030C945A030C945A030C945A038C
:100080000C945A030C945A030C945A030C945A037C
:100090000C945A030C945A030C945A030C945A036C
:1000A0000C945A030C945A030C945A03000C00FF4E
:1000B000FFFF00000000000C55FFFFFF00000000E4
:1000C000000CAAFFFFFF0000000005010906A101C6
:1000D0008506050719E029E7150025019508750132
:1000E00081020507190029EF1500250195F075011A
:1000F00081020508190129059505750191029501EF
:1001000075039101C005010906A101050719E02940
:10011000E715002501950875018102950175088193
:10012000010507190029FF150026FF00950675082F
:1001300081000508190129059505750191029501B0
:1001400075039101C009023B00020100A0C8090427
:1001500000000103010100092111010001224000FA
:1001600007058103080001090401000103000000E4
:10017000092111010001223B000705820320000133
:100180001201000200000008D804DDE600010102AF
:100190000001100367007500690064006500360007
:1001A000380000002003530061006C006900630008
:1001B00079006C00690063002D0061006300690034
:1001C0006400330000000403090400000000000084
:1001D000000000000000000000000000000000001F
:1001E00000000000000000000000000000007E0F82
:1001F00000D4FFFFFFC700000078000000000000EF
:1002000000002A2B28000000000000000000000071
:10021000000000000029000000002C1E34202122D4
:1002200024342627252E362D3738271E1F2021223D
:10023000232425263333362E37381F0405060708B6
:10024000090A0B0C0D0E0F101112131415161718A6
:10025000191A1B1C1D2F3130232D350405060708E4
:10026000090A0B0C0D0E0F10111213141516171886
:10027000191A1B1C1D2F3130354C22232526282905
:100280002A2C2D2F3032333536383A3B3D3E404212
:10029000434547494A4C4E5051535557595A5C5E55
:1002A0006062646668696B6D6F71737577797B7D69
:1002B0007F81838587898A8C8E90929496989A9C68
:1002C0009E9FA1A3A5A7A8AAACAEAFB1B3B4B6B880
:1002D000B9BBBCBEBFC1C2C3C5C6C7C9CACBCCCDE2
:1002E000CED0D1D2D2D3D4D5D6D7D7D8D9D9DADABD
:1002F000DBDBDBDCDCDCDCDCDDDDDDDDDCDCDCDC3D
:10030000DCDBDBDBDADAD9D9D8D7D7D6D5D4D3D270
:10031000D2D1D0CECDCCCBCAC9C7C6C5C3C2C1BF4E
:10032000BEBCBBB9B8B6B4B3B1AFAEACAAA8A7A5B2
:10033000A3A19F9E9C9A98969492908E8C8A89876E
:100340008583817F7D7B79777573716F6D6B69684C
:10035000666462605E5C5A5957555351504E4C4A20
:100360004947454342403E3D3B3A383635333230CB
:100370002F2D2C2A292826252322FFAA7F5540002D
:100380000101010101010101010202020202020256
:100390000202030303030303030304040404040429
:1003A00004050505050506060606060707070707EF
:1003B00008080808090909090A0A0A0B0B0B0C0CA2
:1003C0000C0D0D0D0E0E0E0F0F0F1010111111123E
:1003D0001213131414151516161717181819191ABD
:1003E0001A1B1B1C1D1D1E1E1F2020212222232420
:1003F00024252626272829292A2B2C2D2D2E2F305F
:10040000313232333435363738393A3B3C3D3E3F72
:10041000404142434445464748494A4C4D4E4F505F
:10042000515354555658595A5B5D5E5F616264651D
:100430006668696B6C6D6F7072737577787A7B7DA7
:100440007E8082838587888A8C8E8F9193959698FB
:100450009A9C9EA0A2A3A5A7A9ABADAFB1B3B5B717
:10046000BABCBEC0C2C4C6C9CBCDCFD1D4D6D8DBEE
:10047000DDDFE2E4E7E9EBEEF0F3F5F8FAFDFFC0CB
:1004800000B600AC00000000047F3F1F643214641B
:100490003214783C1E1E140A0529001E001F00207D
:1004A0000021002200000000002B0014001A0008A8
:1004B000001500170000000000E00004001600070F
:1004C0000009000A0000000000E1001D001B0006FA
:1004D0000019000500000000002252E300E2003095
:1004E0007E2C0000000000000023002400250026D0
:1004F0000027002D002E0035001C0018000C0012F3
:100500000013002F0030002A000B000D000E000F1A
:10051000003300340028003100110010003600378D
:10052000003800E4005200E5002C00317E0000E6B7
:10053000002252500051004F002900007E017E022F
:100540007E037E047E000000002B000D7E0E7E0FD9
:100550007E107E117E00000000E000197E1A7E1BD6
:100560007E1C7E1D7E00000000E100247E257E268C
:100570007E277E287E000000002252E300E2000178
:10058000002E7E000000000000057E067E077E082B
:100590007E097E0A7E0B7E3500127E137E147E1548
:1005A0007E167E177E187E2A001E7E1F7E207E21EC
:1005B0007E227E237E28000C7E297E2A7E2B7E2CA6
:1005C0007E2D7EE0005200E5002F7E01000000013C
:1005D00000225201000100010035003A003B003CBE
:1005E000003D003E00000000002078237825782799
:1005F0007801000100000000002178247826782886
:1006000078010001000000000001004C050100011C
:10061000000100007C000000002252010001002CBB
:1006200000307E0000000000003F0040004100421A
:100630000043004400450029004A004E004B004D95
:10064000004600010048004C005000510052004F8D
:100650000049004C0028000100007C01000100015D
:1006600000010001004B000100317E2C0000000160
:100670000022524A004E004D000011241FBECFEF51
:10068000DAE0DEBFCDBF13E0A0E0B1E0ECEDF5E5D0
:1006900002C005900D92AC30B107D9F724E0ACE070
:1006A000B3E001C01D92AB39B207E1F70E94DD2231
:1006B0000C941E2A0C940000EBEBF2E020E030E0FA
:1006C000408151814817590751F4220F331F220FDF
:1006D000331FF901E554FD4F8281938108952F5F07
:1006E0003F4F34962431310559F78FEF9FEF08952E
:1006F0009C01909191042115310579F021FF0DC0E5
:100700009260909391048091900480618093900412
:1007100081E080938D04C90108959D7FF2CF9C01F3
:10072000FB0191509F31B0F4832F817034FF0AC0D8
:100730008295807F31FD806232FD806433FD806868
:100740000995089531FD826032FD846033FFF8CF52
:100750008860F6CF80E0F4CF80934D0490934E04F0
:1007600008950E94780380934F0490935004089555
:1007700021E030E002C0220F331F8A95E2F780911A
:100780004F0490915004822B932B0E94B103089543
:1007900021E030E002C0220F331F8A95E2F7209556
:1007A000309580914F0490915004822393230E94AE
:1007B000B10308959A3088F5883078F528E0929F43
:1007C000F0011124E80FF11D51E081FD54E080FD9E
:1007D000550F82FD529583E0F695E7958A95E1F7EE
:1007E000EE0FFF1FEE0FFF1FED5EFB4F20E030E02E
:1007F00070E04191DF01CB01022E02C096958795F2
:100800000A94E2F78695880B8427852384278E93A4
:100810002F5F3F4F2430310561F708959A3068F516
:10082000883058F528E0929FF0011124E80FF11D5F
:10083000982F977083E0F695E7958A95E1F7EE0F8C
:10084000FF1FEE0FFF1FED5EFB4F40E050E080E02A
:10085000219130E0092E02C0369527950A94E2F7DF
:100860002170042E01C0220F0A94EAF7822B4F5FF9
:100870005F4F4430510561F7089580E008958091FD
:10088000560420915504281301C0089501968770DD
:10089000FACF90913C01911521F09091520497FD6F
:1008A00013C0A0E1B3E0EFEF90E02C91821759F074
:1008B0001196EF3F19F4211101C0E92F9F5F963087
:1008C000A1F7EF3FA1F40895E82FE695E695E695A8
:1008D000803FC8F7F0E0E25FFC4F877021E001C085
:1008E000220F8A95EAF78281822B82830895FE2F58
:1008F000FF0FFF0BE25FFC4FF8CF90913C0191118D
:100900000CC0E0E1F3E09191891302C0DF011E9277
:1009100093E0E631F907B9F708959091520497FFF3
:10092000F0CFE82FE695E695E695803FA8F7F0E052
:10093000E25FFC4F9DEF81FD97EF80FF959582FD73
:1009400092958281892382830895909151048095A4
:10095000892380935104282F277091F4282F382F52
:10096000330F330B9217130659F09091530492FFF3
:1009700007C08595859585950E94C80310925104FE
:100980000895982F909580914B04892380934B0470
:10099000089580914C04811110924C0408957A308E
:1009A000C8F46830B8F48330A8F4E72FF0E09AE098
:1009B000899FE00DF11D112483E0EE0FFF1F8A9542
:1009C000E1F7E60FF11DEE0FFF1FE756FB4F859194
:1009D0009491089580E090E008959091520492FFE0
:1009E00006C0282F28712830F9F4877F846093FF90
:1009F00006C0282F28712831F1F4877E8461209168
:100A0000530420FF06C0382F38713830D9F4877F5F
:100A1000816021FF06C0282F28712831D1F4877EFC
:100A2000816194FD877E0895282F24712430F9F682
:100A30008B7F8860DCCF282F2471243101F78B7ED7
:100A40008861DDCF382F3171313019F78E7F8860A2
:100A5000E0CF282F2171213121F78E7E8861E1CFEF
:100A6000CF93DF93EC01803E910509F480C040F5FF
:100A70008133910509F4C8C090F48932910509F4D5
:100A8000B8C08A32910509F4C6C0019709F482C042
:100A9000CE010497813A910508F075C07BC0893377
:100AA000910509F458C08238910509F454C0853382
:100AB000910509F499C08D3C910550F3D0656AC049
:100AC000843E910509F475C0B0F4823E910509F4A5
:100AD0005DC0833E910509F461C0C03232E5D307A1
:100AE00008F0D2C0D03508F0A9C0D03408F49AC0BC
:100AF000DF70D06A4FC0863E910509F465C0873E1D
:100B0000910509F466C0803422E5920730F3803AFB
:100B100052E5950708F0AAC0C03882E5D80708F06A
:100B2000C9C08C2F869586954C2F43708770C03630
:100B3000D24508F4AFC020E2829FC001112421E019
:100B400030E002C0220F331F4A95E2F7822B932B2D
:100B5000EC01DA681FC080915204837009F0CEC0A6
:100B60008091530483FF16C0C9E2D0E013C0809186
:100B7000520480FD46C09091530490FF0BC0C3EE19
:100B8000D0E084FF07C0C0E0D0E004C080915204F0
:100B900082FDF5CFCE01DF91CF910895809152046F
:100BA00082FDA9C09091530490FDA8C084FFF2CFAC
:100BB000EACF8091530481FFEDCF80915204C7EEBC
:100BC000D0E084FDE0CFE6CF8091520483FDF7CFE3
:100BD000E1CF8091520483FD94C09091530491FF22
:100BE000E5CFC4EED0E0D6CF8091520485FFD2CFBE
:100BF000BBCF8091520485FD87C08091530483FF51
:100C0000C9CFC9E3D0E0C6CF8091520486FFC2CFDE
:100C1000CAE2D0E0BFCF8091520486FFBBCFC1E3D0
:100C2000D0E0B8CFD03208F05EC0C83ED10508F49D
:100C3000B1CFCE01915081159F412ECF8C2FD2354F
:100C400008F445C08695869540E2849FC001112432
:100C5000C37021E030E0A90102C0440F551FCA95BE
:100C6000E2F7EA01C82BD92BDD6894CF803C32E54E
:100C7000930730F1805C9245809708F084CFDC2F99
:100C8000DF71C0EFD06A86CF8C2F8F71D82FC1EF64
:100C9000D06A80CF50E2859FC001112421E030E06E
:100CA00002C0220F331F4A95E2F7822B932BEC01EF
:100CB000DC6870CF8C2F8F71D82FC4EFD06A6ACFC9
:100CC0008F710E94ED04C0E0D82FD06263CF8F7186
:100CD0000E94ED0493E0CC0FDD1F9A95E1F7DF70E1
:100CE000C82FD06957CF8D2F8F710E94ED042C2F04
:100CF000382FE901EACFC2EED0E04CCFC0EED0E011
:100D000049CFC6EED0E046CFC5E3D0E043CFA4E064
:100D1000B0E0EDE8F6E00C94ED2889839A83009129
:100D20004F041091500480914D0490914E04082B73
:100D3000192B8FE08B831C8281E090E00B8002C036
:100D4000880F991F0A94E2F780239123892B69F475
:100D50008B819C8101978B839C83019669F7F12C91
:100D60008F2D2496E5E00C940929FB8069817A8116
:100D70008F2D0E94CF040E943005019749F3F0CFD8
:100D80000F931F93CF93FC01228100811181C80131
:100D9000211589F0611579F00E948706C82F682F08
:100DA000C8010E94DA03B8018C2F0E94CF04CF91B2
:100DB0001F910F9108950E940E04C82FF4CFA2E056
:100DC000B0E0E5EEF6E00C94F02889839A830E9467
:100DD000870669817A810E94CF040E94300522969D
:100DE000E2E00C940C29FC0183819481892BC9F0E9
:100DF0008181908189238F3FA1F0808191810E9420
:100E0000DF06282F92959F70963099F060F4925FDC
:100E10009F70923030F4203FB1F038F481E0283EEA
:100E200038F080E008959A5FF3CF81E0243FC9F75E
:100E3000089591E0213F09F090E081E0283E08F01C
:100E400080E0892B089581E0089580E00895F8946A
:100E5000E82FE295EF70F0E041A18F7021E030E0E3
:100E6000B90101C0660F8A95EAF7862F962F9095F3
:100E7000942391A392A1892B82A378940895089535
:100E8000A0E0B0E0E6E4F7E00C94E828082F162F85
:100E9000453B08F044EBE42FF0E0E158FC4F111122
:100EA0000EC0E4918E2F4E2FD90111964C93EE93E4
:100EB00012968C93CDB7DEB7EAE00C940429E49146
:100EC0004E2F86E0089F70011124CFEFD0E0C701BC
:100ED000BE010E943C29C801880F991F55E5569F05
:100EE000D001579FB00D11248A1B982F990F980F8E
:100EF0006E01C11AD108EC9DD001ED9DB00D1124F9
:100F00008B2F199F50011124AB2CB12C6E01CA18E4
:100F1000DB085601EA9D6001EB9DD00C1124633083
:100F2000710561F1FE01E91BF1091E9F50011F9F30
:100F3000B00C1124AB2CB12CCA19DB094C9F8001D9
:100F40004D9F100D1124E12F9CEFE91693E0F90657
:100F500058F461307105B1F06230710509F0A4CF29
:100F6000E42F4B2F812FA0CF6430710571F06630D4
:100F7000710509F499CFEB2F8D2D96CF4B2F8E2F26
:100F8000ED2D92CFE42F4D2D8FCFEB2F842F412FBE
:100F90008BCF80914604823060F4817082608093B0
:100FA000460480914904853B18F084EB8093490402
:100FB00008958A34B0F381708864F1CF10928F0461
:100FC000809190048460809390040895FA018115C3
:100FD00011F009950895FB01FCCFFC01AC014B5FBA
:100FE0005F4F8FEF61E39191892728E030E0982FE0
:100FF000990F87FF09C0892F862721503040B9F704
:10100000E417F50781F70895892FF7CF2FB7F894E4
:101010008091A4039091A503A091A603B091A7038A
:101020002FBF08952FB7F8946091A4037091A50382
:101030008091A6039091A7032FBF08959C014FB7FD
:10104000F8948091A4039091A503A091A603B09178
:10105000A7034FBF821B930B089587E797E7809301
:1010600000089093010888E19AE00FB6F894A895DB
:10107000809360000FBE90936000FFCF80915A0371
:10108000089508950895FC018091380390913903E3
:101090008617970748F06115710529F48091E800DB
:1010A0008E778093E800CB0140E0009741F4411136
:1010B00006C08091E80082FF30C080E00895209152
:1010C000C4032115B1F12530B1F12091E80023FDD1
:1010D0002EC02091E80022FDECCF2091E80020FFF7
:1010E000E4CF4091F3002091F200342F009719F0E3
:1010F0002830310558F041E02830310509F040E052
:101100002091E8002E772093E800CFCF41914093C3
:10111000F10001972F5F3F4FE9CF8091C403811504
:1011200041F0853041F08091E80083FFC2CF81E03B
:10113000089582E0089583E00895982F9093E90040
:10114000891771F07091EC002091ED005091F00042
:1011500021FD09C09F5F973089F78093E9000895CA
:10116000762F242F50E03091EB003E7F3093EB0040
:101170003091ED003D7F3093ED003091EB00316018
:101180003093EB007093EC002093ED005093F0004F
:101190002091EE0027FDDECF08958091320387FF76
:1011A00013C08091E80082FF06C08091E8008B7731
:1011B0008093E80008958091C4038111F2CF0895CF
:1011C0008091C4038115D9F38091E80080FFF8CFA6
:1011D0008091E8008E77ECCF2091E4003091E5001B
:1011E00095E6A9012091EC00822F817020FF06C0B6
:1011F0008091E80080FF06C080E008952091E8001B
:1012000022FD1AC08091C403811589F0853089F0D0
:101210008091EB0085FD0FC02091E4003091E50046
:1012200042175307F9F29150E1F684E0089582E005
:10123000089583E0089581E00895A0E0B0E0E3E23E
:10124000F9E00C94EA28C8EDD0E088818F7E88838D
:10125000E7EDF0E080818160808384E082BF81E0FF
:101260008093310388818E7F888302EE10E0E2EE66
:1012700010821092DA006801CA94E1EE108288812F
:101280008F77888388818068888388818F7D888331
:1012900019BC1092C4031092300310928A0310926A
:1012A0002F037601EA94E0EE80818B7F8083888132
:1012B0008160888342E060E080E00E949D08F60142
:1012C00080818E7F8083E2EE808181608083808157
:1012D00088608083E0EE80818E7F8083888180615A
:1012E0008883CDB7DEB7E8E00C940629E8EDF0E09E
:1012F00080818E7F80831092E2001092DA0010923B
:10130000E100A0EEB0E08C9181608C9380818F77BA
:10131000808319BCA7ED8C918E7F8C9380818F7E0A
:1013200080831092310308958091C503811110C00C
:101330008091D80080618093D8008AE18A95F1F786
:1013400000C08091D90080FF0AC081E08093C5036E
:1013500081E09091C503913009F080E0089582E02A
:101360008093C5030E9476091092C403F1CF0E94B6
:101370009409811519F00E94120808950E9412081C
:101380002091ED033091EE034091EF035091F00373
:10139000620F731F841F951F08950E949409811581
:1013A00029F00E940608282F822F08950E94B7096D
:1013B000262F972FF9CF0E949409811561F0E091B3
:1013C000F103F091F203309729F00190F081E02DC4
:1013D0000995089580E00895A8E0B0E0E2EFF9E013
:1013E0000C94EE2889839A836B837C834D835E8380
:1013F0008091D0030AE010E08A3010F001E010E0A4
:1014000021E02F8318866B817C8189819A81ED810F
:10141000FE81099581111BC02F8138852F5F3F4FB9
:101420002F8338870217130794F0C901889F900112
:10143000899F300D300D112480E090E045E34A95FE
:10144000F1F70000019682179307C1F7DCCF2896C9
:10145000E4E00C940A299091530492FB222720F98E
:10146000281779F080FB92F990935304609152040D
:101470007091530484E090E00E94082A82E00E9468
:10148000A504089580914B0490915404892B809376
:101490000E0390914C049115D9F0892B80930E0383
:1014A00080913C01811521F08091520487FD3FC05D
:1014B00086E090E020E133E08150F90140812F5F28
:1014C0003F4F41119F5F8111F7CF91110E94C904D5
:1014D00040E250E063EF73E08EE093E00E94C029A9
:1014E000892B21F180E2EEE0F3E0A3EFB3E001907D
:1014F0000D928A95E1F7E091F103F091F2033097B4
:10150000A9F080913C01811559F08091520487FF28
:1015100007C080910E0380930F0386E080930E0333
:101520000280F381E02D8EE093E0099508958EE12D
:10153000C0CF811539F090914B04982B90934B04B8
:101540000E94420A0895811539F090915404982B15
:10155000909354040E94420A0895811521F00E943C
:10156000C1040E94420A0895811541F0809590912E
:1015700054048923809354040E94420A0895CF930F
:10158000C82F8115C9F08238C9F40E94DB0981FD9A
:1015900013C089E30E9449040E94420A2FEF87EE9C
:1015A00093E0215080409040E1F700C0000089E3C3
:1015B0000E947D040E94420ACF9108958338A1F4CD
:1015C0000E94DB0980FDF8CF83E50E9449040E9458
:1015D000420A2FEF81EE94E0215080409040E1F7E5
:1015E00000C0000083E5E4CF8438A1F40E94DB0949
:1015F00082FDE2CF87E40E9449040E94420A2FEF55
:1016000081EE94E0215080409040E1F700C000005E
:1016100087E4CECF8CEF8C0F813A78F580913C0136
:10162000811521F08091520487FD0EC0E0E1F3E0C6
:101630008081C817E1F0319623E0E631F207C1F767
:101640008C2F0E944904B6CFEC2FE695E695E695DF
:10165000F0E0E25FFC4F828190E04C2F477021E088
:1016600001C0220F4A95EAF78223892B49F38C2F78
:101670000E947D040E94420AE3CF80E28C0F8830F2
:1016800008F09ACFC77021E001C0220FCA95EAF78F
:1016900080914B04822B80934B048CCFCF93DF93AC
:1016A000EC01805E9109089720F063EA7AE02097C8
:1016B00011F469E97AE0CE010E948F038C2F0E9419
:1016C000BF0ADF91CF910895811581F0823879F4B6
:1016D0000E94DB0981FF0AC089E30E9449040E943D
:1016E000420A89E30E947D040E94420A08958338D9
:1016F00059F40E94DB0980FFF9CF83E50E94490479
:101700000E94420A83E5EECF843859F40E94DB0937
:1017100082FFECCF87E40E9449040E94420A87E4DA
:10172000E1CF9CEF980F913AE8F290E2980F983051
:10173000E8F6982F81E091FD84E090FD880F92FDFE
:1017400082950E94C104D0CFCF93DF93EC010E9419
:10175000640BCE01805E9109089720F064EB7AE07B
:10176000209711F46DEA7AE0CE010E948F03DF9199
:10177000CF910895A3E0B0E0E0ECFBE00C94F028FA
:101780008983893389F480E58A831B8289810E9459
:10179000BF0A8A819B81892B51F489810E94640B45
:1017A0002396E2E00C940C291A821B82EFCF8FE97A
:1017B0009FE00197F1F700C000008A819B810197AB
:1017C0008A839B83E6CFA3E0B0E0E9EEFBE00C94D4
:1017D000EE286A834B8329838115B1F0609344041A
:1017E0000E94060880935B0390935C039A8181E0DA
:1017F00091FD84E090FD880F92FD82950E94990AE8
:101800002396E4E00C940A29809144049A81981369
:1018100035C080915B0390915C030E941E08883C58
:10182000910560F51B81105E8A819B818917B1F05B
:1018300087708A8301E0802F0A8001C0880F0A9494
:10184000EAF70E94AD0A183048F48B81877001C016
:10185000000F8A95EAF7802F0E94990A89810E94D9
:10186000BA0B9B81183060F681E091FD84E090FD19
:10187000880F92FD82950E94AD0AC2CF9A81F4CF63
:10188000A3E0B0E0E6E4FCE00C94EA288A839B83C2
:10189000EA81FB819081913008F49FC009F054C027
:1018A0008181813079F482810E94BA0B6A817B81C7
:1018B0006E5F7F4F6A837B838A819B8101968A83D7
:1018C0009B83E6CF823031F4EA81FB8182810E94E2
:1018D000BF0AECCF833031F4EA81FB8182810E9420
:1018E000640BE4CF843031F08A819B8101968A8336
:1018F0009B83E2CFEA81FB8122813296EA83FB83DC
:1019000080E090E04AE02053330B2A30310550F05C
:10191000009791F20197EFE9FFE03197F1F700C0EE
:101920000000F6CF6A817B816F5F7F4F6A837B8384
:10193000489FB001499F700D1124C901860F971F60
:10194000EA81FB812081DFCFE92FF0E0E650FE4FF6
:1019500064916983292F26952695269530E0F90113
:10196000E651FE4FE4909770F12C092E02C0F594D9
:10197000E7940A94E2F7F901E652FE4FC490D12CA5
:10198000092E02C0D594C7940A94E2F7F901E653F0
:10199000FE4F049110E002C0159507959A95E2F765
:1019A000E0FE03C081EE0E94BF0AC0FE03C086EEC7
:1019B0000E94BF0A89810E94BA0BC0FE03C086EE56
:1019C0000E94640BE0FE03C081EE0E94640B00FFE6
:1019D00073CF8CE20E94BA0B6FCF2396E8E00C9491
:1019E0000629E0919904F0919A04FE57EE32F10530
:1019F00040F4E05EF54D0C9486298DE391E00E9461
:101A0000400C08958EEA91E0FACF8FE391E0F7CF92
:101A100081E491E0F4CF81E892E0F1CF83E491E0BA
:101A2000EECF85E491E0EBCF87E491E0E8CF89E465
:101A300091E0E5CF8BE491E0E2CF8DE491E0DFCF60
:101A40008FE491E0DCCF87E591E0D9CF89E591E0A3
:101A5000D6CF8CE591E0D3CF8FE591E0D0CF82E671
:101A600091E0CDCF85E691E0CACF88E691E0C7CF7F
:101A70008BE691E0C4CF82E692E0C1CF8EE691E0A2
:101A8000BECF80E791E0BBCF8EE692E0B8CF82E791
:101A900091E0B5CF85E791E0B2CF88E791E0AFCF95
:101AA0008BE791E0ACCF8EE791E0A9CF81E891E0A0
:101AB000A6CF84E891E0A3CF88E692E0A0CF87E8A4
:101AC00091E09DCF8AE20E94BA0B08958AE891E0E6
:101AD00096CF8DE891E093CF80E991E090CF83E9B4
:101AE00091E08DCF86E991E08ACF89E991E087CFB7
:101AF0008CE991E084CF8FE991E081CF82EA91E097
:101B00007ECF8091970490919804009779F08E325F
:101B10002EE7920721F488E20E94BA0B08958F32D3
:101B20009E4721F484EA91E00E94400C0895809140
:101B30009704909198048E322EE7920709F086C0A0
:101B4000E0919904F0919A04FE57ED32F10540F4CA
:101B5000E25BF54D0C94862986EA91E00E94400CE8
:101B6000089582EA91E0FACF88EA91E0F7CF8AEA15
:101B700091E0F4CF8CEA91E0F1CF80EB91E0EECFF1
:101B800088EB91E0EBCF82EC91E0E8CF8CEC91E038
:101B9000E5CF8EEC91E0E2CF80ED91E0DFCF8AEDF2
:101BA00091E0DCCF82EE91E0D9CF81E792E0D6CF11
:101BB00085EE91E0D3CF88EE91E0D0CF8CEE91E02E
:101BC000CDCF8FEE91E0CACF82EF91E0C7CF85EF06
:101BD00091E0C4CF88EF91E0C1CF8BEF91E0BECF11
:101BE0008EEF91E0BBCF8CE092E0B8CF81E092E045
:101BF000B5CF84E092E0B2CF88E092E0AFCF8BE047
:101C000092E0ACCF8EE092E0A9CF81E192E0A6CF46
:101C100084E192E0A3CF87E192E0A0CF8DE491E050
:101C20009DCF8AE192E09ACF89EE91E097CF8DE146
:101C300092E094CF80E292E091CF83E292E08ECF67
:101C400086E292E08BCF89E292E088CF8F329E4786
:101C500009F086CFE0919904F0919A04E350FE4791
:101C6000EB32F10508F07CCFE558F54D0C94862950
:101C70008CE292E073CF8EE292E070CF81E392E04B
:101C80006DCF84E392E06ACF87E392E067CF8EE581
:101C900092E064CF8AE392E061CF8DE392E05ECF81
:101CA00080E492E05BCF83E492E058CF86E492E058
:101CB00055CF88E492E052CF8BE492E04FCF8EE490
:101CC00092E04CCF81E592E049CF84E592E046CFA7
:101CD00087E592E043CF8AE292E040CF8AE592E046
:101CE0003DCF8DE592E03ACF81E692E037CF85E6B1
:101CF00092E034CF87E692E031CF8AE692E02ECFB1
:101D00008DE692E02BCF80E792E028CF83E792E048
:101D100025CF85E092E022CF86E792E01FCF89E7CA
:101D200092E01CCF8CE792E019CF809195049091BE
:101D30009604892B61F480919404853030F48330CB
:101D400068F4813029F0823031F0109294040895C3
:101D50000E94F10CFACF0E94810DF7CF0E94970DDF
:101D6000F4CF10924B0480913C01E0E1F3E0811547
:101D700071F08091520487FF0AC08EE1DF011D924D
:101D80008A95E9F7109254040E94420A089586E069
:101D9000F5CF0E94B10E2FEF84E39CE021508040EC
:101DA0009040E1F700C0000088E19AE00FB6F89497
:101DB000A895809360000FBE90936000FFCFAAE2C9
:101DC000B0E0E5EEFEE00C94EE288091C4038115AE
:101DD00009F424C18091E9001091EC008F7010FB90
:101DE000112717F9182B1092E9008091E80083FF62
:101DF00012C182E393E0FC0101962091F10020835F
:101E000023E08A339207B9F780913303893009F4CC
:101E100056C0C8F4823009F4B3C0833009F482C0DC
:101E2000813071F18091E80083FFE7C08091320337
:101E3000909133039A3008F0E0C0E92FF0E0EA55C2
:101E4000F54D0C9486298A3009F489C08B3051F7FE
:101E500080913203813231F78091360390913703BC
:101E6000892B01F78091E800877F8093E8000E942A
:101E7000CD088091340380933C010E94B10ED2CFF3
:101E800080913203813A71F68091E800877F8093D8
:101E9000E8008091360390913703892B61F060E070
:101EA00080E090E070E00E9443088091E8008B772A
:101EB0008093E800B7CF60E28AE393E0F3CF8091AC
:101EC0003203813209F0AECF80913603909137030F
:101ED000029708F0A7CF8091E800877F8093E80001
:101EE0008091E80082FF19C02091F3008091F200F8
:101EF000922F029731F48091F100813011F08630F9
:101F000021F48091F10080935A038091E8008B774F
:101F10008093E8000E94CD0885CF8091C403811191
:101F2000DFCF80CF80913203813A09F07BCF80915F
:101F3000360390913703892B09F074CF8091E80024
:101F4000877F8093E8008091E80080FFFCCF80913C
:101F50003C018093F1008091E8008E77D9CF809189
:101F60003203813209F05ECF8091E800877F809351
:101F7000E8000E94CD088091350380932E0352CF54
:101F800080913203813A09F04DCF8091E800877F3C
:101F90008093E8008091E80080FFFCCF80912E03C1
:101FA000D8CF803889F0823841F5809136038F7020
:101FB000873018F58093E9008091EB0085FB882736
:101FC00080F91092E90006C080918A03880F9091F1
:101FD0002F03892B9091E800977F9093E8008093DE
:101FE000F1001092F1008091E8008E7726C08111F7
:101FF00019C080913403813029F18091E80083FF7A
:102000000AC08091E800877F8093E8008091EB0010
:1020100080628093EB001F701093E900AA96E4E0C1
:102020000C940A29823049F780913403811581F09C
:102030001092E9008091E800877F8093E8000E9479
:10204000CD08DBCF933009F080E080938A03F0CF96
:10205000809136038F702FEF280F263070F6809313
:10206000E9002091EB0020FFE3CF933031F4809121
:10207000EB0080628093EB00DBCF9091EB009061EE
:102080009093EB0021E030E0A90101C0440F8A9554
:10209000EAF74093EA001092EA008091EB00886032
:1020A000E9CF8111AACF009134030F778091E3002B
:1020B0008078802B8093E3008091E800877F809375
:1020C000E8000E94CD088091E80080FFFCCF80915D
:1020D000E30080688093E30083E0011101C082E0A7
:1020E0008093C4038ACF8058823008F086CF209135
:1020F0003403309135032C3D53E0350791F583E0EF
:102100008A838AE289834FB7F894DE01139620E030
:102110003EE051E2E32FF0E050935700849120FF1E
:1021200003C082958F703F5F8F708A30C0F0895CEA
:102130008D931D922F5F243169F74FBF8091E80086
:10214000877F8093E8006AE270E0CE0101960E94EA
:1021500043088091E8008B778093E8004ECF805D44
:10216000E7CF832F90E08330910519F160F481303F
:10217000910509F46CC08230910509F03ECF8BE3E4
:10218000E5E4F1E029C02091360330913703813234
:10219000910509F453C08232910509F02ECF213008
:1021A000310508F45CC009F028CF8BE3EAECF0E0DD
:1021B00013C0822F90E0213099F182309105B9F15E
:1021C000009709F01ACFE6ECF1E0E4918E2FE6ECEF
:1021D000F1E0009709F411CF2091E800277F2093C8
:1021E000E80020913803309139038217930708F4EF
:1021F0009C0140E021153105B1F5411134C08091B9
:10220000E80082FDA6CF8091C403811509F4A1CF17
:10221000853009F49ECF8091E80083FFF0CF99CFFD
:10222000E4EAF1E0E4918E2FE4EAF1E0D2CFE2E9D2
:10223000F1E0E4918E2FE2E9F1E0CBCF21303105DE
:1022400050F009F0DACE89E0E0E7F1E0C5CF82E1B5
:10225000E0E8F1E0C1CF89E0E7E5F1E0BDCF80E45F
:10226000E5E0F1E0B9CF8091C403811509F471CFA5
:10227000853009F46ECF8091E80083FD6ACF8091AC
:10228000E80082FDBCCF8091E80080FFB3CF409191
:10229000F3008091F200942F2115310519F0883058
:1022A000910550F041E0089709F040E08091E80086
:1022B0008E778093E8009ECF44914093F100319651
:1022C000215031090196E8CF803809F096CE8091EF
:1022D000E800877F8093E800809130038093F100CD
:1022E00082CE81118ACE00913403023008F085CE6F
:1022F0008091E800877F8093E800009330030E947C
:10230000CD08011581F084E08093C40342E061ECC4
:1023100081E00E949D0842E261EC82E00E949D08FB
:102320008091C4036ACE8091E30087FDECCF81E009
:10233000EBCF0F931F93CF93DF93EB018A01909123
:10234000C403943071F58093E9008FEF9091E80019
:1023500095FD06C095ED9A95F1F700008150B1F713
:102360008091E80085FF1DC00E94EC08811114C017
:102370008091E80085FD08C08091E8008E77809309
:10238000E8000E94DF0EF0CF88818093F1000150B9
:10239000104011F02196ECCF8091E8008E77809369
:1023A000E800DF91CF911F910F910895CF93DF93B4
:1023B000EC0180913C01811111C048E050E0BE0168
:1023C00081E00E94991180E2FE01AAE3B3E001904E
:1023D0000D928A95E1F7DF91CF9108958091520493
:1023E00087FD05C048E081E050E0BE01EACF40E251
:1023F00082E0FACF67EE7EEF80E090E00E94082A4C
:1024000060E082E090E00E94EA2960E083E090E0F2
:102410000E94EA2910924D0410924E0460E074E18B
:1024200084E090E00E94082A60E086E090E00E944C
:10243000EA296FEF87E090E00E94EA2960E070E00F
:10244000AB0188E090E00E94FC2960E08DE090E024
:102450000E94EA2960E070E0AB0188E190E00E9410
:10246000FC2960E087E190E00E94EA2960E070E0EA
:10247000AB018CE190E00E94FC2960E070E080E21A
:1024800090E00E94082A60E070E0AB0188E190E0F3
:102490000E94FC2960E070E0AB018FE090E00E94B8
:1024A000FC2960E070E0AB0183E190E00E94FC2930
:1024B0000895A4E0B0E0EFE5F2E10C94F028698320
:1024C0007A838B839C830E94C90749815A816B81DF
:1024D0007C8188E090E00E94FC292496E2E00C9444
:1024E0000C2983E080934604109247048FEF809379
:1024F000480484EB8093490410924A04809190042C
:1025000083608093900463E070E08FEF94EB0E940F
:102510005912089580914A04833018F48F5F809394
:102520004A04609146047091470480914804909158
:1025300049040E945912089580914A04811519F0A6
:10254000815080934A0460914604709147048091C1
:102550004804909149040E9459120895A4E0B0E003
:10256000E4EBF2E10C94EF284091A0035091A10319
:102570006091A2037091A3032FB7F8948091A403F4
:102580009091A503A091A603B091A7032FBF841B30
:10259000950BA60BB70B11E084369105A105B1058B
:1025A00070F10E94B709DC01CB010296A11DB11D9B
:1025B00089839A83AB83BC8380912D0190912E01F6
:1025C00088559C4F20912C01422F50E0253008F077
:1025D00044E0BE016F5F7F4F0E94CD2982E090E012
:1025E0000E945E28182F811551F00E9412086093F6
:1025F000A0037093A1038093A2039093A303812F60
:102600002496E3E00C940B29A8E0B0E0EAE0F3E1C3
:102610000C94EF286F83788780E090E00E945E281A
:10262000182F811509F466C080911F01482F50E0D2
:10263000811141E0609120017091210168557C4F2A
:10264000CE0106960E94CD294091C0035091C1034E
:102650006091C2037091C3032FB7F8948091A403D3
:102660009091A503A091A603B091A7032FBF841B4F
:10267000950BA60BB70B84369105A105B10538F46F
:1026800089EA93E00E94ED079E81891799F181E024
:1026900090E00E945E288115C1F180912701482FAA
:1026A00050E0863008F045E06091280170912901E2
:1026B00068557C4FCE0101960E94CD2989EA93E0AE
:1026C0000E94ED079E81891320C00E94120860932A
:1026D000C0037093C1038093C2039093C30385E04A
:1026E000FE013196ABEBB3E001900D928A95E1F7D4
:1026F00081E00CC085E0E9EAF3E0DE01119601908B
:102700000D928A95E1F71111EACF80E095E0EBEBAD
:10271000F3E0AF81B88501900D929A95E1F7289684
:10272000E3E00C940B29CF92DF92EF92FF92CF93CC
:10273000DF93CDB7DEB729970FB6F894DEBF0FBE93
:10274000CDBF85E0E6E4F4E09E012F5F3F4FD90165
:1027500001900D928A95E1F750918E0440918F047B
:1027600080919004909191045E834F83888799872C
:10277000C0909C03D0909D03E0909E03F0909F0337
:102780009FB7F8944091A4035091A5036091A603CC
:102790007091A7039FBF4C195D096E097F09E22F55
:1027A000443651056105710510F4811509F18091D8
:1027B00035019091360188559C4F20913401422F6C
:1027C00050E02A3008F049E06E2F732F0E94CD2987
:1027D00083E090E00E945E28811569F00E94120853
:1027E00060939C0370939D0380939E0390939F033B
:1027F0001092900481E029960FB6F894DEBF0FBEC8
:10280000CDBFDF91CF91FF90EF90DF90CF900895F3
:1028100060914604669570E04BE050E083E091E003
:102820000E94B329892B19F481E080938F040E94C0
:10283000CD098093C6039093C70380919004846070
:10284000809390040895A7E0B0E0E9E2F4E10C94ED
:10285000E72890900F019091460490FF31C0A0901E
:102860008503B0908603A114B10409F03FC0209104
:102870000E0130E0C901880F991F820F931F805A03
:102880009C4F539A6BB1677F7BB17860EFB7F89438
:10289000492D50E09A01220F331F240F351F280FB6
:1028A000391F8217930709F07AC0EFBF8FE594E0D4
:1028B0000197F1F700C000002796EBE00C94032984
:1028C0008091100140911101282F30E0F901EE0FA5
:1028D000FF1FE20FF31FE05AFC4F841708F0BFCF31
:1028E0001182108212828F5F3396F7CF90FFBFCF95
:1028F000C12CD12C8091910421E00C2C01C0220F1D
:102900000A94EAF7822309F43EC0F501E590F490B9
:10291000E114F10409F4ABCF45E050E0B701CE017A
:1029200001960E94AA2989818F3F69F12A8190E04E
:10293000280F392F311D2D30310514F02CE030E0F7
:10294000A901440F551F420F531F9A01205A3C4FB3
:102950002E833F838C01000F111F080F191F005A8F
:102960001C4F8E819F810817190720F095E0E90E12
:10297000F11CD2CF98014D816C818B810E94400760
:102980000D5F1F4FEECFA2E0AA0EB11CBFEFCB1A16
:10299000DB0A23E0C216D10409F0ACCF68CFDC011A
:1029A0004D91CD0158E07BB9000000C047FF6BB9E5
:1029B000440F000000C000C000C06BB900C05A95B1
:1029C00091F76FCF0F931F93CF93DF93EC0100E04C
:1029D00010E090911201091711055CF00E94231478
:1029E0008C81019681708C83DF91CF911F910F9123
:1029F000089580911001A801480F511D9A01220FDE
:102A0000331F240F351F205A3C4F4C8160914804DE
:102A1000809147049695091711054CF4411549F02A
:102A2000409149040E9440070F5F1F4FD2CF4115CC
:102A3000B9F340E0F7CF0F931F93CF938C01C0E021
:102A400060911201C61770F00E942314F80184816E
:102A5000928190FF25C08F5FF8018483CF911F91F1
:102A60000F910895809110018C0F9927991F9C0157
:102A7000220F331F280F391F205A3C4F70E08FEF71
:102A800090E00E945029F801848140914904C69F3A
:102A9000800D1124609148040E944007CF5FD0CF81
:102AA0008150DACFA3E0B0E0E8E5F5E10C94E82846
:102AB0008A839B83FC01828180FD31C0F1E0F98330
:102AC000EA81FB818481B090120181110BC0F981F0
:102AD000F13011F48FEF8B0D80935F0381E0EA8179
:102AE000FB818483E12CF12CEB14E0F00E94231491
:102AF00090915F03F981F13009F056C08091120185
:102B00008150911519F08FEF890F91E080935F0349
:102B1000EA81FB8194832396EAE00C9404292FEF49
:102B20002983CECF809110018E0D9F2D911D8C0198
:102B3000000F111F080F191F005A1C4FF8011182B6
:102B40001082128234E0C32ED12CA12C80915F031D
:102B50008A0D8D302CF16CE00E942E29892F082ED1
:102B6000001C00088E150F0489F4409149042C2D97
:102B70002403A00111245595479555954795980133
:102B800060914804809147040E9440078981A80E03
:102B900091E0C91AD108D1F6EFEFEE1AFE0AA4CFE0
:102BA00087FFDDCF8B0DDBCF892F90E00196609101
:102BB000120170E00E945029982FA8CF0F931F9305
:102BC000CF93DF93EC018C81811109C081E08C836C
:102BD00010925E0392E090930201809301011091A4
:102BE000100120911101812F90E0FC01EE0FFF1FD9
:102BF000E80FF91FE05AFC4F821750F100E0609196
:102C00001201061758F10E9423148091010190913E
:102C10005E03980F90935E0320910201280F20938A
:102C20000201121654F4209112012150330B092E87
:102C3000001C00089217030634F08195809301016F
:102C4000813009F41C82DF91CF911F910F9108957B
:102C50001182108212828F5F3396CECF202F30E008
:102C600070E0C9010E945029810F40915E0390E0FD
:102C7000042E001C000824173005CCF040910201FE
:102C8000042E001C0008421703068CF09C01220F42
:102C9000331F280F391F205A3C4F4091490460913F
:102CA0004804809147040E9440070F5FA8CFFC01B1
:102CB000EE0FFF1FE80FF91FE05AFC4F1182108240
:102CC0001282F3CFA6E0B0E0E8E6F6E10C94EC283F
:102CD0008D839E83DC011496FC912F2F30E0D90167
:102CE0000E941F299B01AC010E9493297B018C014A
:102CF00080E290E09C012F1B3109F901A5E59701C5
:102D0000A8010E94932969837A838B839C839F0106
:102D1000DF010E9417299B010E948C299B01AC01B5
:102D20002E0D3F1D401F511F69817A818B819C812F
:102D30000E946429022F30E00A3248F5A901440FAD
:102D4000551F420F531F55954795142F109535E584
:102D5000E32EF12CE01A80911201F81628F10E945E
:102D60002314AD81BE8114969C9181E0911519F0D8
:102D7000903219F48FEF8093000180910001890F48
:102D8000ED81FE8184832696E6E00C94082985E592
:102D900090E0821B930BAC01440F551F480F591F45
:102DA00092F64F5F5F4FCFCF8E2DF1FC802F409179
:102DB00010014F0D5527551F9A01220F331F240F65
:102DC000351F205A3C4F412F609148040E94400714
:102DD000F394C1CF809146048E7F809346040E9475
:102DE000DE07809190048160809390040E942314F8
:102DF00008959091460490FF11C090911001509158
:102E00001101292F30E0F901EE0FFF1FE20FF31F30
:102E1000E05AFC4F951718F00E94231408958183FF
:102E2000608342839F5F3396F5CFA3E0B0E0EBE190
:102E3000F7E10C94EE288C0180915D0381110AC0AA
:102E40009E012F5F3F4F44EB6FEF0E9440078A8146
:102E500080935D03F8016481613049F06230D1F004
:102E600080915D0340E0611531F040E015C0609154
:102E70005D0340E080E00E94F916F801848190E053
:102E8000019663E070E00E94502984832396E4E079
:102E90000C940A2940915D0380E060E0ECCFA3E050
:102EA000B0E0E5E5F7E10C94F0289091460490FF3E
:102EB0000AC09E012F5F3F4F0E9440074B816981EE
:102EC0008A810E94F9162396E2E00C940C29CF9394
:102ED000DF93EC01EC81F0E0E658FD4F4491E6E42D
:102EE000F4E0628181810E944F178C818F5F8C8317
:102EF000DF91CF910895CF93DF93EC01E6E4F4E006
:102F0000438162818C810E944F178C818F5F8C83FB
:102F1000DF91CF910895A4E0B0E0E1E9F7E10C94EE
:102F2000EA28082FF62E142F2C832091460420FF28
:102F30003EC080914704801308C0909148049613C6
:102F400004C090914904941729F0909190049260E4
:102F500090939004322F3695E32FF0E0E957FD4F20
:102F6000908190938E042E7F223029F59E012F5F51
:102F70003F4F412F6F2D802F0E9440074B81698169
:102F80008A810E94F916802F80934704F0924804AA
:102F9000109349048C81811551F060914604709121
:102FA000470480914804909149040E945912249644
:102FB000E8E00C940629923019F410914904E3CF0B
:102FC000963011F3993001F39931E9F627EEE22EAC
:102FD000E30EEE2DE695F0E0E658FC4FD490C12CC0
:102FE00060911201C61618F00E942314CCCFCD9C1C
:102FF000C001112470E00E943C29802FE0FC13C026
:10300000860F409110014C0D5527551F9A01220F34
:10301000331F240F351F205A3C4F412F6F2D0E9424
:103020004007C394DDCF861BECCF9091460490FF00
:1030300037C08115B1F18532B0F58F77880F909147
:1030400046049170892B809346048091900481609E
:1030500080939004611551F060914604709147048B
:1030600080914804909149040E945912609146044D
:10307000669570E04BE050E083E091E00E94B32958
:10308000892B99F00E94DE0781E08093C90320E03C
:103090004091490460914804809147040E948B1735
:1030A000089581E0CBCF84E2C9CF0E940814ECCF11
:1030B000A5E1B0E0EEE5F8E10C94EB28FE013196D5
:1030C0008AE0DF011D928A95E9F78EEAE82E82E018
:1030D000F82E8F01EC8B1D8BF70181917F018F3FC3
:1030E00009F43FC0F894E82FE295EF70F0E021A1D9
:1030F0008F7041E001C0440F8A95EAF7842F922F28
:10310000942B91A392A18095892382A3789400C0E7
:10311000E3EBF2E031E0D12C21912F3F79F0A22FA7
:10312000A295AF70A05EB0E08C9190E02F7002C0CD
:10313000959587952A95E2F780FF2CC080E0D82AE4
:10314000330F8BEB92E08E179F0731F7F7018291D7
:103150008F3F11F00E94270790EA9A95F1F7D80166
:10316000DC920F5F1F4FE3EBF2E0EE15FF0509F075
:10317000B3CF4AE050E06C897D8983EE93E00E94F2
:10318000C029892B49F48091D7038115B9F10091A9
:10319000E20316C0832FD3CF8AE0EC89FD89A3EE2A
:1031A000B3E001900D928A95E1F70091E20381E08E
:1031B0008093D7030E9406088093D5039093D6038B
:1031C0008091D5039091D6030E941E080597B0F018
:1031D00010E008521C4F45E050E063EE73E0C80178
:1031E0000E94C029892B41F085E0E3EEF3E0D8018D
:1031F00001900D928A95E1F71092D7030E949409ED
:103200000091E20310E008521C4F811509F46EC0D2
:103210007E01FBE0EF0EF11C85E0D7011D928A953F
:10322000E9F78091D0038A3070F544E053E1B701AB
:10323000C8010E94EC09811509F446C04EEA52E12A
:10324000B701C8010E94EC098115F1F143E953E18E
:10325000B701C8010E94EC098115B1F11092D003A9
:103260008091D40390E045E050E0B70188529C4F34
:103270000E94C02921E02093D303892BC1F46596D5
:10328000E7E00C9407298091D1039091D2030E942A
:103290001E08843F914048F68091D303811579F34D
:1032A00085E0F70111928A95E9F71092D303A09176
:1032B000D403B0E0A852BC4F85E0FE013B960190DC
:1032C0000D928A95E1F7DBCF8091D0038F3F39F4DF
:1032D0000E9406088093D1039093D203DDCF8F5FC5
:1032E0008093D0038A3008F4BBCFF2CF85E0F80199
:1032F000A9EAB3E001900D928A95E1F789EA93E09B
:103300000E94ED078093A803E090AE03F090AF0316
:103310000091B0031091B1038091CC039091CD0343
:10332000A091CE03B091CF03E816F9060A071B0758
:10333000D1F0E092CC03F092CD030093CE03109332
:10334000CF030E94940981110EC00E941208E61A50
:10335000F70A080B190BE092ED03F092EE030093CD
:10336000EF031093F00389E0E2EBF3E0DE011B963C
:1033700001900D928A95E1F7F090B303E090B403C9
:10338000D090B5030091B8031091B9038091BA03AE
:103390001092B903111509F472CF14FD80939104B2
:1033A00010FF0CC08B8580FF1DC09091460491607A
:1033B0009093460460E086950E94151811FF06C0A0
:1033C00020E04D2D6E2D8F2D0E948B1712FF04C013
:1033D000011559F00E94081413FF51CF81E080932A
:1033E000C9034DCF0E94EA16E9CF0E94DE07F4CF51
:1033F0008091460486958F5F853208F081E061E018
:103400000E9415180895809146048695815009F40C
:1034100084E261E00E94151808959091460490FF9F
:1034200008C09695981728F0961718F40E94F81976
:10343000089561E00E9415180895A0E0B0E0E3E26D
:10344000FAE10C94E8288C01FC0183819481892B9A
:1034500009F471C08181908189238F3F09F46BC089
:1034600061E0C8010E94C006EC018033FEE79F07BF
:10347000E1F181339E4709F463C080913D048115D9
:1034800009F404C1CE01805E9109089780F4F090A0
:103490003C04F8018281811509F46BC0F11004C06D
:1034A00080913B040E94C803F394F0923C0481E0B5
:1034B00080939504109296040E9406087C019E0158
:1034C0003E57F8018281811509F41CC19091940442
:1034D0002E32310508F094C0923009F48DC008F006
:1034E00052C0911170C081E088C0F80182818115BD
:1034F00099F08FE792E00E94400C81E90E94BA0B9C
:1035000010923D0410929404109295041092960427
:1035100080913B040E94C80380915104877059F048
:10352000F8018281811539F08091530482FF03C034
:1035300082E00E94A504CDB7DEB7EAE00C9404292E
:10354000F8018281811541F383E892E00E94400CEA
:1035500080E90E94BA0B81E080933D0410929404AC
:10356000109295041092960480913B040E94B80337
:10357000D3CFFA94F0923C04F11099CF80913B04A0
:103580000E94B80394CF933009F1943081F1C09335
:103590009904D0939A04E0923E04F0923F04F89488
:1035A000109285001092840080E699E09093890043
:1035B0008093880082E080936F0078941092950445
:1035C00010929604A9CF0E94F10CE1CF80914004A3
:1035D0009091410420913E0430913F04AC01421B84
:1035E000530BF701E81BF90B4E175F0718F40E9405
:1035F000970D79CF0E94F10C84E080939404C7CF9B
:103600009E012E523E472230310588F59230A1F0BE
:1036100030F491112AC082E08093940404C0933066
:10362000F9F0943061F0C0939704D0939804E0923D
:103630004004F0924104B3CF0E94810DF4CF8091F9
:103640003E0490913F042091400430914104AC012C
:10365000421B530BF701E81BF90B4E175F0718F4D9
:103660000E94970DD8CF0E94810D83E0D5CF953071
:1036700038F4933008F043C09130D9F19230E1F141
:10368000109294041092950410929604F0904B04BA
:10369000F801E280E11409F4B2C08D2F8F29827203
:1036A00021E0811101C020E0B22EBB0CAC2EC5017F
:1036B0000E945C036C01019609F4BEC4809142042F
:1036C00090914304009721F00E945C030E94A40B98
:1036D000A0924204B09243048F2D827209F48BC0F1
:1036E00082E20E94C104C6010E944E0BF0924B047C
:1036F00013CF0E94F10CC4CF0E94810DC1CF0E9454
:10370000970DBECF2033310508F0BCCF80919404D3
:10371000833009F440C080F4813081F1823009F0B7
:103720004DCF8091970490919804C817D90709F05C
:1037300045CF0E94810D2CC0843009F03FCF80918D
:10374000970490919804C817D90709F04FC0809149
:103750003E0490913F04E81AF90A20914004309108
:103760004104821B930B8E159F05E8F124E1E216BC
:10377000F104C8F50E94810D81E02AC0809199046E
:1037800090919A04C817D90709F018CF0E94F10C3C
:103790001092940413CF8091990490919A04C817C1
:1037A000D907C9F48091400490914104E81AF90ABC
:1037B00020913E0430913F04821B930B8E159F0590
:1037C00090F0F4E1EF16F10470F40E94F10C82E045
:1037D00080939404F3CE8091970490919804C81735
:1037E000D90709F0EBCE0E94970DD2CF80919904B2
:1037F00090919A04F4CFC6010E944E0B8DCE809119
:10380000420490914304C8130DC40E945C030E94BB
:10381000A40B10924204109243047ECE26E241EEA5
:1038200061EE8E2D0E94E30B77CE27E245EE65EE2A
:10383000F8CF26E241EE60EEF4CF27E245EE64EEEB
:10384000F0CF26E241EE62EEECCF27E245EE66EEE7
:10385000E8CF28E241E0EBCF809152048160809371
:103860005204609152047091530484E090E00E94ED
:10387000082A0E94B10E50CE809153048860809334
:103880005304EFCF809152048260E9CF80915204BB
:103890008460E5CF809152048860E1CF8091530429
:1038A0008160EDCF809153048260E9CF8091520412
:1038B0008061D5CF809152048062D1CF8091520433
:1038C0008064CDCF0E94B10E809152048068C7CF32
:1038D000809152048C60C3CF809153048360CFCF1A
:1038E000809152048E7FBBCF80915304877FC7CFD6
:1038F000809152048D7FB3CF809152048B7FAFCFE4
:1039000080915204877FABCF809153048E7FB7CFD5
:10391000809153048D7FB3CF809152048F7E9FCFCF
:10392000809152048F7D9BCF809152048F7B97CFE3
:103930000E94B10E809152048F7791CF80915204F2
:10394000837F8DCF809153048C7F99CF90915204C7
:10395000892F8B7F92FF8460877F92FF88607FCF63
:1039600080915304982F909590FB80F990FB81F9FA
:1039700086CF90915204892F8F7B96FF80646FCF02
:103980000E94B10E90915204892F97FB87F98058BD
:1039900066CF61E08EE090E00E94EA2962CF60E0AD
:1039A000F9CF90915204892F8F7E94FF806157CF79
:1039B00090915204892F8E7F90FF816050CF90911B
:1039C0005304892F877F93FF886059CF89E225C3ED
:1039D00089E20FC38F2D8272FE01E052F847E53174
:1039E000F10508F08DC0E055F54D0C9486298091C5
:1039F000460480FF17C08E7F809346046091460482
:103A00007091470480914804909149040E94591292
:103A10000E94DE07809190048160809390040E9450
:103A200023147ACD81608093460461E086950E94DC
:103A3000151872CD43E05AE168EF79E10E94E6077C
:103A40006BCD48EF59E163E07AE1F8CF48E752E205
:103A50006EE672E2F3CF4EE652E268E772E2EECF34
:103A60004FE852E262E872E2E9CF42E852E26FE8E0
:103A700072E2E4CF49EA52E26CE972E2DFCF4CE94C
:103A800052E269EA72E2DACF4CE952E16AE872E1A5
:103A9000D5CF4AE852E16CE972E1D0CF61E081E034
:103AA000C6CF65E082E00E940D1A36CD68E086E060
:103AB000FACF6EE089E0F7CF64E18FE0F4CF67E101
:103AC00085E1F1CF61E088E1B2CF62E289E1EBCF3D
:103AD00061E083E2ACCFCA354CE7D40709F49CC05F
:103AE00008F074C0C1308CE7D80709F493C0C33024
:103AF0009CE7D90709F488C0C115DC4709F477C0F1
:103B0000F8018281E080F180811509F489C0C70144
:103B10000E948706C82F682FC7010E94DA03B701E9
:103B20008C2F0E94CF040E943005D82FC92FF80196
:103B3000D280C580C2942FE0C22280915104877048
:103B4000C1F0FD2CD114B1F0892F807F803421F099
:103B500080E28D0F883068F08091530482FF09C0A5
:103B600082E00E94A504809151048770FF24F394A1
:103B70008111F12C8C2F82958F70883009F418C137
:103B800008F053C0823008F462C0825F8F708230C8
:103B900008F497C0F114A9F08091510480FD11C080
:103BA000F80112828595859585950E94B803C80114
:103BB0000E941D1A809151048595859585950E94D6
:103BC000C80360E0C8010E94C006B5CCCB35FCE755
:103BD000DF0721F180915304002482FF0394802D9C
:103BE000CC35DC4709F08CCF0E942B0A89CF0E948C
:103BF000B10E3FEF44E35CE0315040405040E1F70C
:103C000000C000000E942D086FEF7FEF80E090E081
:103C10000E94082A0E94C90E81E0E6CF80E0E4CF2E
:103C2000C7010E940E04C82F7ACF893009F44CC115
:103C30008A5F8F70823008F0ADCFD23F09F055C156
:103C40008C2F8F71D1104EC10E94B803E6C0FC2F9B
:103C5000FF70EF2EC03118F0E29490EFE922D114FA
:103C6000B9F0E11469F080E28D0F883010F0D111C5
:103C700009C080914B048E2980934B040E94420A14
:103C80008D2F49C0809154048E2980935404F6CF1F
:103C90008D2F0E94640BE11409F47CCF80E28D0F1C
:103CA000883010F0D11104C08E2D0E94C10406C0CE
:103CB000E094809154048E21809354040E94420A1F
:103CC00069CF2C2F2F70E22EC07FC03219F0E29402
:103CD00080EFE822D13078F009F44AC0D11409F419
:103CE00056C0C11409F44AC0F801858180FFC8CFCD
:103CF0008F70858343C02091530422FD16C0D114D8
:103D000069F0E11439F080914B048E2980934B04C3
:103D10000E94420A80E00E94BF0A3CCF80E00E94DD
:103D2000640BE11409F436CFBFCFD11479F0909130
:103D30004C048E2D892B31E0C31221C022FF2ACFE3
:103D4000891709F427CF80934C0424CFC11006C0F3
:103D50000E94C9048E2D0E94AD0A1CCF41E0C416FA
:103D600009F418CF8E2D0E94AD0A0E94C90412CF0B
:103D7000D11441F056E0C51608F00CCF8E2D0E94EC
:103D8000990A08CF85E0C81608F004CFE3CFC11424
:103D900009F3D93349F4FFEF27EE33E0F150204027
:103DA0003040E1F700C000008D2F0E94640BF2CE7E
:103DB0008C2F837009F042C0D1102FC04D2F429537
:103DC00046954770440F440F2D2F2F7030E0042E7E
:103DD00002C0220F331F0A94E2F780E090E0D4FF84
:103DE00009C08FE090E002C0880F991F4A95E2F762
:103DF00080959095C695C695C370C230B1F0C3301A
:103E000089F040914D0450914E04C13049F0822B0D
:103E1000932B842395230E94AC030E94DB09BACE26
:103E2000242B352B822B932BF6CF822B932B209197
:103E30004D0430914E0482279327EDCFD11491F198
:103E4000C0FFEBCF4D2F429546954770440F440F6E
:103E50002D2F2F7030E0042E02C0220F331F0A9442
:103E6000E2F780E090E0D4FF09C08FE090E002C06C
:103E7000880F991F4A95E2F780959095C695C6954B
:103E8000C370C230C1F0C33099F040914F045091DB
:103E90005004C13059F0822B932B842395230E9428
:103EA000B103BBCF823008F4B8CFCCCF242B352B55
:103EB000822B932BF4CF822B932B20914F043091A4
:103EC000500482279327EBCFCF70D11439F08C2F79
:103ED0000E94B8038D2F0E94990A9FCF8D2F0E94B8
:103EE000AD0A8C2F0E94C80398CF70F4D03FC9F060
:103EF000D13F91F0D11409F45DC0C11409F457C049
:103F00008D2F0E94BF0A89CFD33F29F1D43F91F76B
:103F10008091530482FD2DC08C2F8F71D11411F329
:103F200093CED114A9F045E0C41608F076CFCF7136
:103F300081E090E0FC0102C0EE0FFF1FCA95E2F79E
:103F4000EF0180914F04909150048E279D27A7CFB9
:103F5000F6E0CF16EACF80E090E0D11409F49FCFCD
:103F6000CF7181E090E002C0880F991FCA95E2F7F7
:103F700096CFD11489F0CF718C2F0E94B803809115
:103F8000530482FF07C08C2F880F880F880F83602F
:103F9000809351048C2F58CE81E00E94A50422E02A
:103FA000C21608F43ACF82E00E94A50436CF8C2FC7
:103FB0008F714ACEC11479F0D93349F43FEF47EEFF
:103FC00053E0315040405040E1F700C000008D2FD9
:103FD0000E94640B22CF8C2F8F7184CFC631FCE7F7
:103FE000DF0709F0F7CC80914504811509F4F0CC86
:103FF00085E30E947D0413C0C6312CE7D20709F087
:104000006ACD8F2D8A7A91E0811101C090E0909362
:104010004504811509F4DACC85E30E9449040E9425
:10402000420A7ACAFE01E851FC47E730F105B0F6D2
:10403000EB53F54D0C948629FE01E851FC47E7301F
:10404000F105B0F310924404CE0190578397A0F687
:1040500084E090E00E94E4298093520490935304FA
:10406000FE01E150F047E232F10508F0F5CBE453F0
:10407000F54D0C948629CF93DF9380918C04803189
:1040800008F049C080918904811509F444C0E09189
:104090005604609155045091870440918804209102
:1040A0008A0430918B04742F75236E17A1F1EF01F0
:1040B0002115310599F17F3F89F186E0E89FF001F4
:1040C0001124DF01A95ABB4F11968C9111978413CB
:1040D00025C08C91851322C012968C911297811164
:1040E0001DC013968D919D91821B930B883C910569
:1040F000A8F480918C048F70806180938C04E45AC2
:10410000FB4F80818F708061808387E894E00E94FC
:104110001D1A0E943F04DF91CF910895FE01319650
:10412000E770C3CF8F929F92AF92BF92DF92EF92D0
:10413000FF920F931F93CF93DF93CDB7DEB72B97EB
:104140000FB6F894DEBF0FBECDBF8C0185E0F8013D
:10415000DE01179601900D928A95E1F7F801F28041
:1041600087E8882E84E0982E40918A0450918B0431
:104170004115510509F416C19091870420918804D6
:10418000822F89238F3F09F40DC1A380B480D09082
:104190008904B501641B750BD11409F4D7C0809153
:1041A0008C04683C710508F0B3C03181803108F09F
:1041B00073C0EF2C321312C0208129130FC0F110ED
:1041C00007C18F70806180938C04C4010E941D1A06
:1041D00080918C04F8018583E12C4BC0AB2889F0D9
:1041E0008F81932F98239F3F61F0E0915604909127
:1041F0005504F114E1F080918C04816080938C046B
:10420000EBCFF110F8CFE8CFAF0126E0E29FF0014D
:104210001124E95AFB4F2181321306C020818213F9
:1042200003C022812111D8CFFA013196E770E9133A
:10423000EBCF8F8198850E94DF06292F22952F7062
:10424000903240F49F7011F0811599F0805E8830B3
:1042500080F004C0225F2F70223028F0C8010E9435
:104260001D1AED2C06C09F7089F3F80195819031DD
:1042700068F78E2D2B960FB6F894DEBF0FBECDBF1C
:10428000DF91CF911F910F91FF90EF90DF90BF9042
:10429000AF909F908F900895321312C02081291300
:1042A0000FC0F1100DC08583C8010E941D1A86E061
:1042B000F801A7E8B4E001900D928A95E1F725C0D6
:1042C000C8010E94F306811509F468C0F11409F4CD
:1042D00065C080918C04803270F020918704309109
:1042E000880429833A831B82AC82BD828E83CE01EF
:1042F00001960E941D1A86E0F801A7E8B4E001903B
:104300000D928A95E1F70E943B20EE24E394B1CF11
:10431000803150F487E894E00E941D1A86E0F40191
:1043200011928A95E9F758CF31813213C9CF208194
:104330002913C6CFF110C4CF8583C8010E941D1A6E
:1043400086E0F40111928A95E9F7DFCF683C7105A8
:1043500028F7F11419F18181821316C08081891325
:1043600013C080918C0480FDA2CF803108F49FCFD0
:104370008583807F803F09F497CF8581982F907F38
:10438000905F8F70892B8FCFC8010E94F306811137
:10439000B2CF80918C04816080938C04C8010E940C
:1043A0001D1AB3CFF114D1F3C8010E94F306811591
:1043B000A9F386E0F801A7E8B4E001900D928A9590
:1043C000E1F780918704909188040E94DF069BCFDB
:1043D000AB2809F005CF0FCFA7E1B0E0E2EFF1E2A3
:1043E0000C94F0284B8B5C8B962F6D8B7E8B8F8B78
:1043F0006111109254041A8A85E0FE017396DE0161
:104400001D9601900D928A95E1F79F8786E0FE0147
:104410003D96DE01179601900D928A95E1F7CE0147
:1044200007960E94922081112EC020915504309150
:10443000560486E0FE013796DE01119601900D923A
:104440008A95E1F78A859B85892BE9F088859F818C
:1044500089238F3FC1F0822F90E08395877090E091
:1044600038171906D1F096E0929FD0011124A95A6D
:10447000BB4FFE01319601900D929A95E1F7809322
:1044800055040E943F04809156049091550489136D
:1044900012C06796E2E00C940C290E94B10E1092B3
:1044A00055041092560486E0E7E8F4E0DF011D921F
:1044B0008A95E9F7E8CFB6E08B9FC0011124895AAD
:1044C0009B4F0E949220811521F3209156042F5F6B
:1044D0003F4FC901877080935604D5CFE6E4F4E0DE
:1044E000818121E043816281885F0E948B1708955A
:1044F000E6E4F4E0818121E04381628188500E94FA
:104500008B170895E6E4F4E0628121E1620F08F47C
:104510006FEF21E0438181810E948B170895E6E4CB
:10452000F4E0628121E1621B08F460E021E0438154
:1045300081810E948B170895E6E4F4E0438121E134
:10454000420F08F44FEF21E0628181810E948B17B6
:104550000895E6E4F4E0438121E1421B08F440E0E1
:1045600021E0628181810E948B1708951F920F9232
:104570000FB60F9211242F933F934F935F936F9336
:104580007F938F939F93AF93BF93EF93FF93E091AC
:104590009204F09193040995FF91EF91BF91AF912F
:1045A0009F918F917F916F915F914F913F912F914B
:1045B0000F900FBE0F901F90189500D000D000D024
:1045C000CDB7DEB785B7806885BF85B7806885BF02
:1045D00084B7877F84BF0FB6F894A8958091600058
:1045E000886180936000109260000FBE80E890E0C8
:1045F0000FB6F89480936100909361000FBE85E23E
:1046000097E080930C0390930D030E9476090E941B
:104610001D098091E20084608093E20078940E94FA
:10462000DF0E82E084BD93E095BD9AEF97BD809345
:104630006E001092ED031092EE031092EF031092B1
:10464000F00326982E988FE891E00197F1F700C0CB
:10465000000088271E998395809313018091130190
:1046600081118FC086E080930E0186E080930F0158
:104670000E94940981110E946C27809113018091FE
:10468000130190E0811101C095E09093E20385E071
:10469000891B8093D4030EEA12E0B3EBEB2EB2E059
:1046A000FB2ED8018D918D018F3F11F00E942707BD
:1046B000E016F106B1F703EB12E0ABEBEA2EA2E055
:1046C000FA2EF80181918F018F3F11F00E94270788
:1046D000E016F106B1F78AE0E8EDF3E0DF01282FFC
:1046E0001D922A95E9F7E3EEF3E0DF011D928A952A
:1046F000E9F781E080933B04F89485E99EE080939C
:104700009204909393041092800085E0809381003E
:104710001092820010928500109284008FEF9FEF1C
:104720009093890080938800789401960E94E429F0
:10473000873E9E4F11F00E94FA1182E090E00E94A5
:10474000D62980938D0384E090E00E94E429809331
:104750005204909353040E945818EFE3FCE93197F8
:10476000F1F700C000000E9458188091D80380FF24
:104770000AC06FEF7FEF80E090E00E94082A0E945D
:104780002D0880E070CF83E090E00E94D62990E071
:104790000E94AC0380914F04909150040E947803D2
:1047A0008091840381113BC080E090E00E94E42965
:1047B000873E9E4F21F00E94FA110E94711288E0FC
:1047C00090E00E94DE296093460470934704809332
:1047D00048049093490480919004836080939004EE
:1047E000623070F40E94711288E090E00E94DE292D
:1047F000609346047093470480934804909349045F
:104800000E94C9070E94DE078091460480FF04C011
:1048100060E086950E94151881E0809384030E94D1
:104820009409811102C00E946F278FE794E0809362
:1048300085039093860384E191E08093F103909344
:10484000F2038091C4038530D1F48091C403853094
:1048500009F462C00E94B10E0E94DB091092890324
:1048600080918803811549F080914604816080938E
:10487000460460E086950E9415180E9408140E9464
:1048800058180EE813E0F8EDEF2EF3E0FF2E28E9BC
:1048900033E0F701D8019D9180812A173B0709F485
:1048A0009FC031969817B9F30E9494098E83D12C3A
:1048B000D701CD907D01F80191908F019C1429F1D1
:1048C0009C24AA24A394B12C8A2D8921B9F0FE81BD
:1048D000F115A1F0B982DA8291E08A2D8C2109F4D8
:1048E00090E09B830E9406088160782F8C839D83D3
:1048F00049815A816B81892F0E94EC21B394AA0CC3
:1049000028E0B212E1CFF801C292D3946AE0D61245
:10491000CFCF0E94120884C08091C403843009F470
:1049200034C00E94DE078091890381110AC021E012
:1049300020938903809146048170809388030E94AC
:10494000EA161092870388E190E0A0E40FB6F8948D
:10495000A895809360000FBEA093600083B7817F0D
:10496000846083BF83B7816083BF7894889583B761
:104970008E7F83BF0FB6F894A89580916000886100
:1049800080936000109260000FBE80918A038115B1
:1049900009F45BCF0E945818E8EDF3E080818111A3
:1049A00007C0319682EE93E08E179F07B9F74DCF7F
:1049B00080E189BD82E189BD09B400FEFDCF80910F
:1049C000D8008F7D8093D8008091E0008260809332
:1049D000E0008091E00081FDFCCF0E94B10E35CF58
:1049E000981362CF0E9406088C0180918B039091EE
:1049F0008C0308171907A1F08FEF89838A831B8224
:104A00000E9406088160782F8C839D8349815A819A
:104A10006B81892F0E94EC2100938B0310938C03F0
:104A20000E94940980918F04811509F48DC08091B2
:104A30008E04E0914604E695E81BE093C8038531B7
:104A400009F4C1C0F8F4893009F4B1C068F48230C7
:104A500009F497C0863009F49FC000ED17E08FE39A
:104A6000E82E87E0F82E21C08F30B9F7E695F0E008
:104A7000E457FB4FE4910E2F10E042E5E42E45E1B0
:104A8000F42E13C0833209F4A9C004EF11E092EEB2
:104A9000E92E94E1F92E843241F008E210E0E2E6DA
:104AA000EE2EE6E1FE2E8831C1F68091C903811514
:104AB00061F01092C9030E94CD098093C6039093C0
:104AC000C7031092CA031092CB030E94CD09209114
:104AD000C6033091C703AC01421B530B4F3F5F47E6
:104AE00098F540919A034115B1F010929A034091C4
:104AF000980350919903841B950B8F3F9F4758F45F
:104B0000405D5A48409398035093990380919004D4
:104B1000886080939004C090CA03D090CB03200F8C
:104B2000311F2093C6033093C70386EC93E0F7014F
:104B300009958091CA039091CB03892B29F4CD2844
:104B400019F0F1E0F0939A0380918D04811561F0E2
:104B500010928D0480918F04811106C080914604CB
:104B600060E086950E9415180E94DB0990919B03D6
:104B7000891721F080939B030E9412080E94DF0E88
:104B800060CEF0E0EB56FB4FE4910E2F10E077E69D
:104B9000E72E77E1F72E89CFF0E0EE56FB4FE49158
:104BA0000E2F10E06BE7E62E67E1F62E7ECFE6953E
:104BB000F0E0E157FB4FE4910E2F10E05BE1E52EB2
:104BC00055E1F52E72CFF0E0E757FB4FE4910E2F41
:104BD00010E03EEDE32E35E1F32E67CFE7E8F4E099
:104BE0000591149125E1E22E27E1F22E5ECF1F926E
:104BF0001FB61F9211248F939F93AF93BF93809101
:104C00008703811113C08091A4039091A503A09103
:104C1000A603B091A7034196A11DB11D8093A403E3
:104C20009093A503A093A603B093A703BF91AF9160
:104C30009F918F911F901FBE1F90189578941F927F
:104C40001FB61F9211248F939F93AF93BF938091B0
:104C5000A4039091A503A091A603B091A703019688
:104C6000A11DB11D8093A4039093A503A093A60357
:104C7000B093A703BF91AF919F918F911F901FBEDB
:104C80001F9018951F920F920FB60F9211242F9319
:104C90003F934F935F936F937F938F939F93AF93C4
:104CA000BF93EF93FF938091E10082FF09C0809151
:104CB000E20082FF05C08091E1008B7F8093E100DC
:104CC0008091DA0080FF24C08091D80080FF20C04E
:104CD0008091DA008E7F8093DA008091D90080FF86
:104CE00096C080E189BD82E189BD09B400FEFDCF97
:104CF00081E08093C40380913103811109C00E9437
:104D000076090E941D098091E20084608093E20090
:104D10008091E10080FF17C08091E20080FF13C006
:104D20008091E2008E7F8093E2008091E2008061BA
:104D30008093E2008091D80080628093D80019BCF3
:104D400085E08093C4038091E10084FF29C08091B5
:104D5000E20084FF25C080E189BD82E189BD09B4FC
:104D600000FEFDCF8091D8008F7D8093D800809188
:104D7000E1008F7E8093E1008091E2008F7E80933E
:104D8000E2008091E20081608093E2008091300334
:104D9000811509F442C084E08093C4038091C40368
:104DA0008091E10083FF22C08091E20083FF1EC05A
:104DB0008091E100877F8093E10082E08093C403CB
:104DC000109230038091E1008E7F8093E10080910A
:104DD000E2008E7F8093E2008091E2008061809308
:104DE000E20042E060E080E00E949D08FF91EF91C8
:104DF000BF91AF919F918F917F916F915F914F91F3
:104E00003F912F910F900FBE0F901F90189519BCD6
:104E10001092C403109231037BCF8091E30087FF8F
:104E200002C083E0B9CF81E0B7CF8EE1489B02C0DA
:104E30008150E1F7489BFECF0895589880E28A950B
:104E4000F1F7589A0895FC013BE03A95F1F798E0A4
:104E500020E080E031E040E14A95F1F7880F489B7F
:104E600002C08160232742E04A95F1F7000040E14B
:104E70004A95F1F7915079F790E19A95F1F799B148
:104E800032E03A95F1F7000040E14A95F1F7917070
:104E900092272081920F90830895A1E0B0E0E3E58E
:104EA000F7E20C94EC2819828C017C01E60EF11CCF
:104EB0000E941527CE0101960E942327F8018193B5
:104EC0008F01EE15FF05A1F781E09981911180E036
:104ED0002196E6E00C940829509A589A0895509823
:104EE000589AE89AE9E6F0E080818C7F8083089503
:104EF0006150770B91E001C0990F6A95EAF7692F2D
:104F000090E021E0611108C0911591F0589A80E27B
:104F10008A95F1F758980895362F382339F0589A22
:104F2000922730E23A95F1F76695ECCF5898F9CF91
:104F30005898EDCFA3E0B0E0E0EAF7E20C94EE2859
:104F40008A839B830A811B81060F111DEA81FB81E5
:104F50008191EA83FB8389830E941D2768E0898110
:104F60000E947827EA81FB81E017F10779F7239601
:104F7000E4E00C940A291F920F920FB60F921124AD
:104F80000F931F932F933F934F935F936F937F9351
:104F90008F939F93AF93BF93EF93FF93CF93DF9341
:104FA0000F92CDB7DEB719820E941527CE01019668
:104FB0000E942327082F069506950695282F2295EF
:104FC0002570902F9570920F292F237096959695A6
:104FD000920F982797708981892B09F059C0053065
:104FE00008F056C080E18A95F1F7589A509A82E00D
:104FF0008A95F1F700C0589888E0089F8001112435
:10500000D801A45EBE4F1696ED91FD91189730978A
:1050100091F06091AC027091AD0214962D913D918A
:10502000260F371F15978D919D91680F791F4C9111
:1050300013978C910995F801E45EFE4F6381611529
:1050400051F02091AC023091AD0284819581820FA4
:10505000931F0E949A270E941D2780E18A95F1F7ED
:1050600058985098589A80E18A95F1F7F801E45ED3
:10507000FE4F6081611551F02091AC023091AD027C
:1050800081819281820F931F0E944D270E941527D4
:105090000F90DF91CF91FF91EF91BF91AF919F91D1
:1050A0008F917F916F915F914F913F912F911F91C0
:1050B0000F910F900FBE0F901F901895A4E0B0E0D5
:1050C000E4E6F8E20C94F02889839A838530910510
:1050D0000CF06FC0F894509A589845E04A95F1F753
:1050E0000000982F9695957089818570980F892F6B
:1050F0008370292F26952695E981FA8193E0EE0F9A
:10510000FF1F9A95E1F7EB83FC83280FE22BF32B2B
:10511000E983FA830E941D2700C068E089810E940C
:105120007827F0E1FA95F1F75098589A489B3AC0E1
:1051300087E090E0489938C0EB81FC81E45EFE4F47
:105140006381611561F02091AC023091AD028481E0
:105150009581820F931F0E944D27811539F10E947E
:10516000152740E24A95F1F75898509A50E15A9520
:10517000F1F78B819C81845E9E4F89839A83FC0129
:105180006081611551F02091AC023091AD028181B6
:105190009281820F931F0E949A270E941D27789464
:1051A00081E008C000C0C2CF019741F4509A589ADC
:1051B000789480E02496E2E00C940C2900C0BACFE9
:1051C0002F923F924F925F926F927F928F929F9217
:1051D000AF92BF92CF92DF92EF92FF920F931F9305
:1051E000CF93DF93CDB7DEB7CA1BDB0B0FB6F894B6
:1051F000DEBF0FBECDBF09942A88398848885F84F6
:105200006E847D848C849B84AA84B984C884DF8066
:10521000EE80FD800C811B81AA81B981CE0FD11D4A
:105220000FB6F894DEBF0FBECDBFED0108950E940A
:105230001F29332312F48A1B9B0B0C948E29A29FE7
:10524000B001B39FC001A39F700D811D1124911D5A
:10525000B29F700D811D1124911D089587FB082EAA
:10526000062687FD819567FD61950E949E290EF4B3
:10527000919507FC81950895AA1BBB1B51E107C0BE
:10528000AA1FBB1FA617B70710F0A61BB70B881FD6
:10529000991F5A95A9F780959095BC01CD01089565
:1052A00097FB072E16F4009407D077FD09D00E94D3
:1052B0003C2907FC05D03EF4909581959F4F0895B9
:1052C000709561957F4F0895A1E21A2EAA1BBB1B12
:1052D000FD010DC0AA1FBB1FEE1FFF1FA217B307C2
:1052E000E407F50720F0A21BB30BE40BF50B661FD8
:1052F000771F881F991F1A9469F76095709580959C
:1053000090959B01AC01BD01CF010895EE0FFF1FE9
:105310000590F491E02D09940E941F29B7FF08958C
:10532000821B930B08950E941F29A59F900DB49F87
:10533000900DA49F800D911D11240895992778E068
:10534000880F991F961708F0961B881F7A95C9F742
:1053500080950895FB01DC0102C005900D9241503B
:105360005040D8F70895FC014150504030F0019072
:105370000616D1F73197CF01089588279927089508
:10538000FB01DC0104C08D910190801921F4415092
:105390005040C8F7881B990B0895FB01DC0102C03F
:1053A00001900D9241505040D8F70895F999FECFE1
:1053B00092BD81BDF89A992780B50895A6E1B0E025
:1053C00044E050E00C94102AA8E1B0E042E050E044
:1053D0000C94102A262FF999FECF92BD81BDF89A20
:1053E000019700B4021639F01FBA20BD0FB6F89429
:1053F000FA9AF99A0FBE08950396272F0E94EB2977
:105400000E94EA29252F0E94EB29242F0C94EB29D6
:105410000196272F0E94EB290C94EA29DC01CB018D
:10542000FC01F999FECF06C0F2BDE1BDF89A3196B4
:1054300000B40D9241505040B8F70895F894FFCF52
:10544000FD0C020D050D080D0B0D0E0D110D140DAB
:10545000170D1A0D1D0D200D010D230D260D290D03
:105460002C0D2F0D320D350D380D3B0D3E0D3E0D23
:10547000410D440D470D4A0D4D0D500D530D560D68
:10548000590D5C0D5F0D620D230D660D690D6C0DE0
:105490006F0D720D750D780D7B0D7E0DAC0DB10D80
:1054A000B40DB70DBA0DBD0DC00DC30DC60DC90DA0
:1054B000CC0DCF0DB00DD20DD50DD80DDB0DDE0D01
:1054C000E10DE40DE70DEA0DED0DB70DBA0DF00D90
:1054D000F30DF60DF90DFC0DFF0D020E050E080E75
:1054E000B00DB00D0B0E0E0E110E140E170E1A0E7F
:1054F0001D0E200E230EB70DBA0DBD0DC00DC30D30
:10550000C60DC90D380ECF0DC60DB00D3B0E3E0EAB
:10551000410E440E470E4A0E4D0E500E530E560EBF
:10552000B70D590E5C0E5F0E620E650E680E6B0EA7
:105530006E0E710E740E770EB00D7A0E7D0E800E0B
:10554000830E860E890E8C0E8F0E920ED10FF70FE2
:10555000FD0FF70FFD0F51107310FD0F6411711146
:10556000F71C1A1D211D261D2B1D301D351D3A1D32
:105570003F1D441D491D4E1D511D561D591D5C1DCD
:105580005F1D621D651D681D8C1A191C1D1C0E1CDB
:10559000151C211C251C291C701CD81C781C421CA5
:1055A000461C7C1C4A1C801C8C1C561CD11C5A1C82
:1055B000901C5E1C941CB91C621C981CC01C681CAE
:1055C0009E1CA61C4E1C841C521C881C6C1CA21CFD
:0C55D000B01CC91CCF1C3C1C741CDF1C50
:1055DC0001010201191A1B1C1D1E1F202122000C87
:1055EC00000C0C013E08D6114108420800000001D5
:1055FC00000000000000000501000000040600008F
:10560C0000000000090A0000000000000131003316
:10561C00003400360037003800390030002D00010E
:10562C0002E12D0103E1002E006B61007461006B3F
:10563C006F007361007261007469006B75002C005F
:10564C003B007369007465006B65007365006861ED
:10565C0000746F006B69006E6E00686900737500F2
:10566C006875006865006D6500736F006E65006895
:10567C006F002F0020003F007E005D000101320012
:10568C000102E15D0103E1000102E10101320103CC
:10569C00E1000102E10101340103E1002A002800CC
:1056AC000102E10101870103E1000102E13B010379
:1056BC00E1007861007269007879610072650070B0
:1056CC006100646900677500647500706900776F2C
:1056DC00006E6100787975006D6F00626100646F17
:1056EC0000676900706F00787500726F0078690050
:1056FC007075007A6F00706500626F005F00676103
:10570C0000646100676F007A61006E690072750059
:10571C006D61007865005B007675007A69006465E0
:10572C00006765007A65006D69006E6F0078796FAF
:10573C00007874750027006269007A750062750044
:10574C006265006E75006D7500776100786F000101
:10575C0001350001018A0000010202020206060660
:10576C000909090909090F0F0F0F0F0F1515151846
:10577C00191919191919191919192324A803946637
:10578C0097C634F4F5F6F7313332352E002D022F4F
:10579C000030003100890030003200340024023522
:1057AC00002F02270226021F022F0023022E0024A4
:1057BC0002230225023402260225022E0233022D78
:1057CC000287022F02300231028902300232023388
:0C57DC0002340034021F0235022E0200CD
:00000001FF
